{
  "address": "0xA1150be29F142107631da39d7b33157B1C755c57",
  "abi": [
    {
      "inputs": [
        {
          "internalType": "contract DogXToken",
          "name": "_dogX",
          "type": "address"
        },
        {
          "internalType": "address",
          "name": "_devAddr",
          "type": "address"
        },
        {
          "internalType": "address",
          "name": "_feeAddress",
          "type": "address"
        },
        {
          "internalType": "uint256",
          "name": "_startBlock",
          "type": "uint256"
        }
      ],
      "stateMutability": "nonpayable",
      "type": "constructor"
    },
    {
      "anonymous": false,
      "inputs": [
        {
          "indexed": true,
          "internalType": "address",
          "name": "user",
          "type": "address"
        },
        {
          "indexed": true,
          "internalType": "uint256",
          "name": "pid",
          "type": "uint256"
        },
        {
          "indexed": false,
          "internalType": "uint256",
          "name": "amount",
          "type": "uint256"
        }
      ],
      "name": "Deposit",
      "type": "event"
    },
    {
      "anonymous": false,
      "inputs": [
        {
          "indexed": true,
          "internalType": "address",
          "name": "user",
          "type": "address"
        },
        {
          "indexed": true,
          "internalType": "uint256",
          "name": "pid",
          "type": "uint256"
        },
        {
          "indexed": false,
          "internalType": "uint256",
          "name": "amount",
          "type": "uint256"
        }
      ],
      "name": "EmergencyWithdraw",
      "type": "event"
    },
    {
      "anonymous": false,
      "inputs": [
        {
          "indexed": true,
          "internalType": "address",
          "name": "previousOwner",
          "type": "address"
        },
        {
          "indexed": true,
          "internalType": "address",
          "name": "newOwner",
          "type": "address"
        }
      ],
      "name": "OwnershipTransferred",
      "type": "event"
    },
    {
      "anonymous": false,
      "inputs": [
        {
          "indexed": true,
          "internalType": "address",
          "name": "user",
          "type": "address"
        },
        {
          "indexed": true,
          "internalType": "address",
          "name": "_feeAddress",
          "type": "address"
        }
      ],
      "name": "SetDevAddress",
      "type": "event"
    },
    {
      "anonymous": false,
      "inputs": [
        {
          "indexed": true,
          "internalType": "address",
          "name": "user",
          "type": "address"
        },
        {
          "indexed": true,
          "internalType": "address",
          "name": "_devAddress",
          "type": "address"
        }
      ],
      "name": "SetFeeAddress",
      "type": "event"
    },
    {
      "anonymous": false,
      "inputs": [
        {
          "indexed": true,
          "internalType": "address",
          "name": "user",
          "type": "address"
        },
        {
          "indexed": true,
          "internalType": "uint256",
          "name": "pid",
          "type": "uint256"
        },
        {
          "indexed": false,
          "internalType": "uint256",
          "name": "amount",
          "type": "uint256"
        }
      ],
      "name": "Withdraw",
      "type": "event"
    },
    {
      "inputs": [],
      "name": "INITIAL_EMISSION_RATE",
      "outputs": [
        {
          "internalType": "uint256",
          "name": "",
          "type": "uint256"
        }
      ],
      "stateMutability": "view",
      "type": "function"
    },
    {
      "inputs": [],
      "name": "MAXIMUM_DEPOSIT_FEE_BP",
      "outputs": [
        {
          "internalType": "uint16",
          "name": "",
          "type": "uint16"
        }
      ],
      "stateMutability": "view",
      "type": "function"
    },
    {
      "inputs": [
        {
          "internalType": "uint256",
          "name": "_allocPoint",
          "type": "uint256"
        },
        {
          "internalType": "contract IBEP20",
          "name": "_lpToken",
          "type": "address"
        },
        {
          "internalType": "uint16",
          "name": "_depositFeeBP",
          "type": "uint16"
        },
        {
          "internalType": "bool",
          "name": "_withUpdate",
          "type": "bool"
        }
      ],
      "name": "add",
      "outputs": [],
      "stateMutability": "nonpayable",
      "type": "function"
    },
    {
      "inputs": [
        {
          "internalType": "uint256",
          "name": "_pid",
          "type": "uint256"
        },
        {
          "internalType": "uint256",
          "name": "_amount",
          "type": "uint256"
        }
      ],
      "name": "deposit",
      "outputs": [],
      "stateMutability": "nonpayable",
      "type": "function"
    },
    {
      "inputs": [],
      "name": "devAddr",
      "outputs": [
        {
          "internalType": "address",
          "name": "",
          "type": "address"
        }
      ],
      "stateMutability": "view",
      "type": "function"
    },
    {
      "inputs": [],
      "name": "dogX",
      "outputs": [
        {
          "internalType": "contract DogXToken",
          "name": "",
          "type": "address"
        }
      ],
      "stateMutability": "view",
      "type": "function"
    },
    {
      "inputs": [],
      "name": "dogXPerBlock",
      "outputs": [
        {
          "internalType": "uint256",
          "name": "",
          "type": "uint256"
        }
      ],
      "stateMutability": "view",
      "type": "function"
    },
    {
      "inputs": [
        {
          "internalType": "uint256",
          "name": "_pid",
          "type": "uint256"
        }
      ],
      "name": "emergencyWithdraw",
      "outputs": [],
      "stateMutability": "nonpayable",
      "type": "function"
    },
    {
      "inputs": [],
      "name": "feeAddress",
      "outputs": [
        {
          "internalType": "address",
          "name": "",
          "type": "address"
        }
      ],
      "stateMutability": "view",
      "type": "function"
    },
    {
      "inputs": [
        {
          "internalType": "uint256",
          "name": "_from",
          "type": "uint256"
        },
        {
          "internalType": "uint256",
          "name": "_to",
          "type": "uint256"
        }
      ],
      "name": "getMultiplier",
      "outputs": [
        {
          "internalType": "uint256",
          "name": "",
          "type": "uint256"
        }
      ],
      "stateMutability": "pure",
      "type": "function"
    },
    {
      "inputs": [
        {
          "internalType": "contract IBEP20",
          "name": "_lpToken",
          "type": "address"
        }
      ],
      "name": "getPoolIdForLpToken",
      "outputs": [
        {
          "internalType": "uint256",
          "name": "",
          "type": "uint256"
        }
      ],
      "stateMutability": "view",
      "type": "function"
    },
    {
      "inputs": [],
      "name": "massUpdatePools",
      "outputs": [],
      "stateMutability": "nonpayable",
      "type": "function"
    },
    {
      "inputs": [],
      "name": "owner",
      "outputs": [
        {
          "internalType": "address",
          "name": "",
          "type": "address"
        }
      ],
      "stateMutability": "view",
      "type": "function"
    },
    {
      "inputs": [
        {
          "internalType": "uint256",
          "name": "_pid",
          "type": "uint256"
        },
        {
          "internalType": "address",
          "name": "_user",
          "type": "address"
        }
      ],
      "name": "pendingDogX",
      "outputs": [
        {
          "internalType": "uint256",
          "name": "",
          "type": "uint256"
        }
      ],
      "stateMutability": "view",
      "type": "function"
    },
    {
      "inputs": [
        {
          "internalType": "contract IBEP20",
          "name": "",
          "type": "address"
        }
      ],
      "name": "poolExistence",
      "outputs": [
        {
          "internalType": "bool",
          "name": "",
          "type": "bool"
        }
      ],
      "stateMutability": "view",
      "type": "function"
    },
    {
      "inputs": [
        {
          "internalType": "contract IBEP20",
          "name": "",
          "type": "address"
        }
      ],
      "name": "poolIdForLpAddress",
      "outputs": [
        {
          "internalType": "uint256",
          "name": "",
          "type": "uint256"
        }
      ],
      "stateMutability": "view",
      "type": "function"
    },
    {
      "inputs": [
        {
          "internalType": "uint256",
          "name": "",
          "type": "uint256"
        }
      ],
      "name": "poolInfo",
      "outputs": [
        {
          "internalType": "contract IBEP20",
          "name": "lpToken",
          "type": "address"
        },
        {
          "internalType": "uint256",
          "name": "allocPoint",
          "type": "uint256"
        },
        {
          "internalType": "uint256",
          "name": "lastRewardBlock",
          "type": "uint256"
        },
        {
          "internalType": "uint256",
          "name": "accDogXPerShare",
          "type": "uint256"
        },
        {
          "internalType": "uint16",
          "name": "depositFeeBP",
          "type": "uint16"
        }
      ],
      "stateMutability": "view",
      "type": "function"
    },
    {
      "inputs": [],
      "name": "poolLength",
      "outputs": [
        {
          "internalType": "uint256",
          "name": "",
          "type": "uint256"
        }
      ],
      "stateMutability": "view",
      "type": "function"
    },
    {
      "inputs": [],
      "name": "renounceOwnership",
      "outputs": [],
      "stateMutability": "nonpayable",
      "type": "function"
    },
    {
      "inputs": [
        {
          "internalType": "uint256",
          "name": "_pid",
          "type": "uint256"
        },
        {
          "internalType": "uint256",
          "name": "_allocPoint",
          "type": "uint256"
        },
        {
          "internalType": "uint16",
          "name": "_depositFeeBP",
          "type": "uint16"
        },
        {
          "internalType": "bool",
          "name": "_withUpdate",
          "type": "bool"
        }
      ],
      "name": "set",
      "outputs": [],
      "stateMutability": "nonpayable",
      "type": "function"
    },
    {
      "inputs": [
        {
          "internalType": "address",
          "name": "_devaddr",
          "type": "address"
        }
      ],
      "name": "setDevAddress",
      "outputs": [],
      "stateMutability": "nonpayable",
      "type": "function"
    },
    {
      "inputs": [
        {
          "internalType": "address",
          "name": "_feeAddress",
          "type": "address"
        }
      ],
      "name": "setFeeAddress",
      "outputs": [],
      "stateMutability": "nonpayable",
      "type": "function"
    },
    {
      "inputs": [],
      "name": "startBlock",
      "outputs": [
        {
          "internalType": "uint256",
          "name": "",
          "type": "uint256"
        }
      ],
      "stateMutability": "view",
      "type": "function"
    },
    {
      "inputs": [],
      "name": "totalAllocPoint",
      "outputs": [
        {
          "internalType": "uint256",
          "name": "",
          "type": "uint256"
        }
      ],
      "stateMutability": "view",
      "type": "function"
    },
    {
      "inputs": [
        {
          "internalType": "address",
          "name": "newOwner",
          "type": "address"
        }
      ],
      "name": "transferOwnership",
      "outputs": [],
      "stateMutability": "nonpayable",
      "type": "function"
    },
    {
      "inputs": [
        {
          "internalType": "uint256",
          "name": "_dogXPerBlock",
          "type": "uint256"
        }
      ],
      "name": "updateEmissionRate",
      "outputs": [],
      "stateMutability": "nonpayable",
      "type": "function"
    },
    {
      "inputs": [
        {
          "internalType": "uint256",
          "name": "_pid",
          "type": "uint256"
        }
      ],
      "name": "updatePool",
      "outputs": [],
      "stateMutability": "nonpayable",
      "type": "function"
    },
    {
      "inputs": [
        {
          "internalType": "uint256",
          "name": "",
          "type": "uint256"
        },
        {
          "internalType": "address",
          "name": "",
          "type": "address"
        }
      ],
      "name": "userInfo",
      "outputs": [
        {
          "internalType": "uint256",
          "name": "amount",
          "type": "uint256"
        },
        {
          "internalType": "uint256",
          "name": "rewardDebt",
          "type": "uint256"
        }
      ],
      "stateMutability": "view",
      "type": "function"
    },
    {
      "inputs": [
        {
          "internalType": "uint256",
          "name": "_pid",
          "type": "uint256"
        },
        {
          "internalType": "uint256",
          "name": "_amount",
          "type": "uint256"
        }
      ],
      "name": "withdraw",
      "outputs": [],
      "stateMutability": "nonpayable",
      "type": "function"
    }
  ],
  "transactionHash": "0x819534fdab07b8ea7716dfd27c38022910baf8ac07433d86c8e3790e811cec5d",
  "args": [
    "0xEaeA1712438ED6A3Da0e161DABA7F19178b7f0e2",
    "0xD6a33cc318c50C5b6825a26C8aa4bf353cE87356",
    "0xD6a33cc318c50C5b6825a26C8aa4bf353cE87356",
    40339
  ],
  "numDeployments": 1,
  "solcInputHash": "3d9d23f3e190188e4512bb7d8657bcb3",
  "bytecode": "0x6080604052600060085534801561001557600080fd5b506040516120a93803806120a98339818101604052608081101561003857600080fd5b508051602082015160408301516060909301519192909160006100596100f8565b600080546001600160a01b0319166001600160a01b0383169081178255604051929350917f8be0079c531659141344cd1fd0a4f28419497f9722a3daafe3b4186f6b6457e0908290a35060018055600280546001600160a01b03199081166001600160a01b03968716179091556003805482169486169490941790935560058054909316919093161790556706f05b59d3b200006004556009556100fc565b3390565b611f9e8061010b6000396000f3fe608060405234801561001057600080fd5b50600436106101cf5760003560e01c806384e82a33116101045780639bf62f7e116100a2578063d963842211610071578063d9638422146104e7578063da09c72c1461051c578063e2bbb15814610524578063f2fde38b14610547576101cf565b80639bf62f7e14610459578063b6e992cd1461047f578063cbd258b514610487578063d0d41fe1146104c1576101cf565b80638dbb1e3a116100de5780638dbb1e3a146103ca57806391bb809c146103ed57806393f1a40b146103f5578063955c9b931461043a576101cf565b806384e82a331461035e5780638705fcd41461039c5780638da5cb5b146103c2576101cf565b8063412753581161017157806351eb05a61161014b57806351eb05a6146103145780635312ea8e14610331578063630b5ba11461034e578063715018a614610356576101cf565b806341275358146102e1578063441a3e70146102e957806348cd4cb11461030c576101cf565b806317caf6f1116101ad57806317caf6f114610263578063190f39f01461026b5780632ec505b414610291578063401ea38e146102bd576101cf565b8063081e3eda146101d45780630ba84cd2146101ee5780631526fe271461020d575b600080fd5b6101dc61056d565b60408051918252519081900360200190f35b61020b6004803603602081101561020457600080fd5b5035610573565b005b61022a6004803603602081101561022357600080fd5b50356105e2565b604080516001600160a01b039096168652602086019490945284840192909252606084015261ffff166080830152519081900360a00190f35b6101dc61062e565b6101dc6004803603602081101561028157600080fd5b50356001600160a01b0316610634565b6101dc600480360360408110156102a757600080fd5b50803590602001356001600160a01b03166106a7565b6102c5610819565b604080516001600160a01b039092168252519081900360200190f35b6102c5610828565b61020b600480360360408110156102ff57600080fd5b5080359060200135610837565b6101dc6109ee565b61020b6004803603602081101561032a57600080fd5b50356109f4565b61020b6004803603602081101561034757600080fd5b5035610c24565b61020b610d21565b61020b610d44565b61020b6004803603608081101561037457600080fd5b508035906001600160a01b036020820135169061ffff60408201351690606001351515610df0565b61020b600480360360208110156103b257600080fd5b50356001600160a01b03166110a0565b6102c56111a6565b6101dc600480360360408110156103e057600080fd5b50803590602001356111b5565b6101dc6111c8565b6104216004803603604081101561040b57600080fd5b50803590602001356001600160a01b03166111d4565b6040805192835260208301919091528051918290030190f35b6104426111f8565b6040805161ffff9092168252519081900360200190f35b6101dc6004803603602081101561046f57600080fd5b50356001600160a01b03166111fe565b6101dc611210565b6104ad6004803603602081101561049d57600080fd5b50356001600160a01b0316611216565b604080519115158252519081900360200190f35b61020b600480360360208110156104d757600080fd5b50356001600160a01b031661122b565b61020b600480360360808110156104fd57600080fd5b5080359060208101359061ffff60408201351690606001351515611314565b6102c561146e565b61020b6004803603604081101561053a57600080fd5b508035906020013561147d565b61020b6004803603602081101561055d57600080fd5b50356001600160a01b0316611659565b60065490565b61057b61175b565b6001600160a01b031661058c6111a6565b6001600160a01b0316146105d5576040805162461bcd60e51b81526020600482018190526024820152600080516020611f06833981519152604482015290519081900360640190fd5b6105dd610d21565b600455565b600681815481106105ef57fe5b6000918252602090912060059091020180546001820154600283015460038401546004909401546001600160a01b0390931694509092909161ffff1685565b60085481565b6001600160a01b0381166000908152600a602052604081205460ff1661068b5760405162461bcd60e51b8152600401808060200182810382526021815260200180611f266021913960400191505060405180910390fd5b506001600160a01b03166000908152600b602052604090205490565b600080600684815481106106b757fe5b600091825260208083208784526007825260408085206001600160a01b0389811687529084528186206005959095029092016003810154815483516370a0823160e01b815230600482015293519298509596909590949316926370a082319260248082019391829003018186803b15801561073157600080fd5b505afa158015610745573d6000803e3d6000fd5b505050506040513d602081101561075b57600080fd5b505160028501549091504311801561077257508015155b156107de5760006107878560020154436111b5565b905060006107ba6008546107b488600101546107ae6004548761175f90919063ffffffff16565b9061175f565b906117b8565b90506107d96107d2846107b48464e8d4a5100061175f565b859061181f565b935050505b61080c836001015461080664e8d4a510006107b486886000015461175f90919063ffffffff16565b90611879565b9450505050505b92915050565b6002546001600160a01b031681565b6005546001600160a01b031681565b6002600154141561088f576040805162461bcd60e51b815260206004820152601f60248201527f5265656e7472616e637947756172643a207265656e7472616e742063616c6c00604482015290519081900360640190fd5b60026001819055506000600683815481106108a657fe5b600091825260208083208684526007825260408085203386529092529220805460059092029092019250831115610919576040805162461bcd60e51b81526020600482015260126024820152711dda5d1a191c985dce881b9bdd0819dbdbd960721b604482015290519081900360640190fd5b610922846109f4565b6000610950826001015461080664e8d4a510006107b48760030154876000015461175f90919063ffffffff16565b905080156109625761096233826118d6565b831561098c5781546109749085611879565b8255825461098c906001600160a01b03163386611aa9565b600383015482546109a79164e8d4a51000916107b49161175f565b6001830155604080518581529051869133917ff279e6a1f5e320cca91135676d9cb6e44ca8a08c0b88342bcdb1144f6511b5689181900360200190a3505060018055505050565b60095481565b600060068281548110610a0357fe5b9060005260206000209060050201905080600201544311610a245750610c21565b8054604080516370a0823160e01b815230600482015290516000926001600160a01b0316916370a08231916024808301926020929190829003018186803b158015610a6e57600080fd5b505afa158015610a82573d6000803e3d6000fd5b505050506040513d6020811015610a9857600080fd5b50519050801580610aab57506001820154155b15610abd575043600290910155610c21565b6000610acd8360020154436111b5565b90506000610af46008546107b486600101546107ae6004548761175f90919063ffffffff16565b6002546003549192506001600160a01b03908116916340c10f199116610b1b84600a6117b8565b6040518363ffffffff1660e01b815260040180836001600160a01b0316815260200182815260200192505050600060405180830381600087803b158015610b6157600080fd5b505af1158015610b75573d6000803e3d6000fd5b5050600254604080516340c10f1960e01b81523060048201526024810186905290516001600160a01b0390921693506340c10f19925060448082019260009290919082900301818387803b158015610bcc57600080fd5b505af1158015610be0573d6000803e3d6000fd5b50505050610c0e610c03846107b464e8d4a510008561175f90919063ffffffff16565b60038601549061181f565b6003850155505043600290920191909155505b50565b60026001541415610c7c576040805162461bcd60e51b815260206004820152601f60248201527f5265656e7472616e637947756172643a207265656e7472616e742063616c6c00604482015290519081900360640190fd5b6002600181905550600060068281548110610c9357fe5b60009182526020808320858452600782526040808520338087529352909320805460059093029093018054909450610cd8926001600160a01b03919091169190611aa9565b80546040805191825251849133917fbb757047c2b5f3974fe26b7c10f732e7bce710b0952a71082702781e62ae05959181900360200190a3600080825560019182015580555050565b60065460005b81811015610d4057610d38816109f4565b600101610d27565b5050565b610d4c61175b565b6001600160a01b0316610d5d6111a6565b6001600160a01b031614610da6576040805162461bcd60e51b81526020600482018190526024820152600080516020611f06833981519152604482015290519081900360640190fd5b600080546040516001600160a01b03909116907f8be0079c531659141344cd1fd0a4f28419497f9722a3daafe3b4186f6b6457e0908390a3600080546001600160a01b0319169055565b610df861175b565b6001600160a01b0316610e096111a6565b6001600160a01b031614610e52576040805162461bcd60e51b81526020600482018190526024820152600080516020611f06833981519152604482015290519081900360640190fd5b6001600160a01b0383166000908152600a6020526040902054839060ff1615610ec2576040805162461bcd60e51b815260206004820152601960248201527f6e6f6e4475706c6963617465643a206475706c69636174656400000000000000604482015290519081900360640190fd5b6103e861ffff84161115610f075760405162461bcd60e51b8152600401808060200182810382526025815260200180611e256025913960400191505060405180910390fd5b8115610f1557610f15610d21565b60006009544311610f2857600954610f2a565b435b600854909150610f3a908761181f565b6008556001600160a01b039485166000818152600a602090815260408083208054600160ff199091168117909155815160a0810183528581528084019b8c528083019687526060810185815261ffff9a8b166080830190815260068054948501815580885292517ff652222313e28459528d920b65115c16c04f3efc82aaedc97be59f3f377c0d3f600590950294850180546001600160a01b03191691909e1617909c559b517ff652222313e28459528d920b65115c16c04f3efc82aaedc97be59f3f377c0d4083015595517ff652222313e28459528d920b65115c16c04f3efc82aaedc97be59f3f377c0d4182015599517ff652222313e28459528d920b65115c16c04f3efc82aaedc97be59f3f377c0d428b015597517ff652222313e28459528d920b65115c16c04f3efc82aaedc97be59f3f377c0d43909901805461ffff191699909716989098179095559054908452600b909552505020600019919091019055565b6001600160a01b0381166110fb576040805162461bcd60e51b815260206004820152601e60248201527f736574466565416464726573733a20696e76616c696420616464726573730000604482015290519081900360640190fd5b6005546001600160a01b0316331461115a576040805162461bcd60e51b815260206004820152601860248201527f736574466565416464726573733a20464f5242494444454e0000000000000000604482015290519081900360640190fd5b600580546001600160a01b0319166001600160a01b03831690811790915560405133907fd44190acf9d04bdb5d3a1aafff7e6dee8b40b93dfb8c5d3f0eea4b9f4539c3f790600090a350565b6000546001600160a01b031690565b60006111c18284611879565b9392505050565b6706f05b59d3b2000081565b60076020908152600092835260408084209091529082529020805460019091015482565b6103e881565b600b6020526000908152604090205481565b60045481565b600a6020526000908152604090205460ff1681565b6001600160a01b03811661127d576040805162461bcd60e51b81526020600482015260146024820152736465763a20696e76616c6964206164647265737360601b604482015290519081900360640190fd5b6003546001600160a01b031633146112c8576040805162461bcd60e51b81526020600482015260096024820152686465763a207775743f60b81b604482015290519081900360640190fd5b600380546001600160a01b0319166001600160a01b03831690811790915560405133907f618c54559e94f1499a808aad71ee8729f8e74e8c48e979616328ce493a1a52e790600090a350565b61131c61175b565b6001600160a01b031661132d6111a6565b6001600160a01b031614611376576040805162461bcd60e51b81526020600482018190526024820152600080516020611f06833981519152604482015290519081900360640190fd5b6103e861ffff831611156113bb5760405162461bcd60e51b8152600401808060200182810382526025815260200180611ee16025913960400191505060405180910390fd5b80156113c9576113c9610d21565b61140683611400600687815481106113dd57fe5b90600052602060002090600502016001015460085461187990919063ffffffff16565b9061181f565b600881905550826006858154811061141a57fe5b906000526020600020906005020160010181905550816006858154811061143d57fe5b906000526020600020906005020160040160006101000a81548161ffff021916908361ffff16021790555050505050565b6003546001600160a01b031681565b600260015414156114d5576040805162461bcd60e51b815260206004820152601f60248201527f5265656e7472616e637947756172643a207265656e7472616e742063616c6c00604482015290519081900360640190fd5b60026001819055506000600683815481106114ec57fe5b6000918252602080832086845260078252604080852033865290925292206005909102909101915061151d846109f4565b805415611566576000611552826001015461080664e8d4a510006107b48760030154876000015461175f90919063ffffffff16565b905080156115645761156433826118d6565b505b82156115f8578154611583906001600160a01b0316333086611b00565b600482015461ffff16156115e95760048201546000906115b090612710906107b490879061ffff1661175f565b82549091506115c5908290610806908761181f565b825560055483546115e3916001600160a01b03918216911683611aa9565b506115f8565b80546115f5908461181f565b81555b600382015481546116139164e8d4a51000916107b49161175f565b6001820155604080518481529051859133917f90890809c654f11d6e72a28fa60149770a0d11ec6c92319d6ceb2bb0a4ea1a159181900360200190a35050600180555050565b61166161175b565b6001600160a01b03166116726111a6565b6001600160a01b0316146116bb576040805162461bcd60e51b81526020600482018190526024820152600080516020611f06833981519152604482015290519081900360640190fd5b6001600160a01b0381166117005760405162461bcd60e51b8152600401808060200182810382526026815260200180611e746026913960400191505060405180910390fd5b600080546040516001600160a01b03808516939216917f8be0079c531659141344cd1fd0a4f28419497f9722a3daafe3b4186f6b6457e091a3600080546001600160a01b0319166001600160a01b0392909216919091179055565b3390565b60008261176e57506000610813565b8282028284828161177b57fe5b04146111c15760405162461bcd60e51b8152600401808060200182810382526021815260200180611ec06021913960400191505060405180910390fd5b600080821161180e576040805162461bcd60e51b815260206004820152601a60248201527f536166654d6174683a206469766973696f6e206279207a65726f000000000000604482015290519081900360640190fd5b81838161181757fe5b049392505050565b6000828201838110156111c1576040805162461bcd60e51b815260206004820152601b60248201527f536166654d6174683a206164646974696f6e206f766572666c6f770000000000604482015290519081900360640190fd5b6000828211156118d0576040805162461bcd60e51b815260206004820152601e60248201527f536166654d6174683a207375627472616374696f6e206f766572666c6f770000604482015290519081900360640190fd5b50900390565b600254604080516370a0823160e01b815230600482015290516000926001600160a01b0316916370a08231916024808301926020929190829003018186803b15801561192157600080fd5b505afa158015611935573d6000803e3d6000fd5b505050506040513d602081101561194b57600080fd5b505190506000818311156119e2576002546040805163a9059cbb60e01b81526001600160a01b038781166004830152602482018690529151919092169163a9059cbb9160448083019260209291908290030181600087803b1580156119af57600080fd5b505af11580156119c3573d6000803e3d6000fd5b505050506040513d60208110156119d957600080fd5b50519050611a67565b6002546040805163a9059cbb60e01b81526001600160a01b038781166004830152602482018790529151919092169163a9059cbb9160448083019260209291908290030181600087803b158015611a3857600080fd5b505af1158015611a4c573d6000803e3d6000fd5b505050506040513d6020811015611a6257600080fd5b505190505b80611aa35760405162461bcd60e51b8152600401808060200182810382526022815260200180611f476022913960400191505060405180910390fd5b50505050565b604080516001600160a01b038416602482015260448082018490528251808303909101815260649091019091526020810180516001600160e01b031663a9059cbb60e01b179052611afb908490611b56565b505050565b604080516001600160a01b0380861660248301528416604482015260648082018490528251808303909101815260849091019091526020810180516001600160e01b03166323b872dd60e01b179052611aa39085905b6060611bab826040518060400160405280602081526020017f5361666542455032303a206c6f772d6c6576656c2063616c6c206661696c6564815250856001600160a01b0316611c079092919063ffffffff16565b805190915015611afb57808060200190516020811015611bca57600080fd5b5051611afb5760405162461bcd60e51b815260040180806020018281038252602a815260200180611e4a602a913960400191505060405180910390fd5b6060611c168484600085611c1e565b949350505050565b606082471015611c5f5760405162461bcd60e51b8152600401808060200182810382526026815260200180611e9a6026913960400191505060405180910390fd5b611c6885611d7a565b611cb9576040805162461bcd60e51b815260206004820152601d60248201527f416464726573733a2063616c6c20746f206e6f6e2d636f6e7472616374000000604482015290519081900360640190fd5b60006060866001600160a01b031685876040518082805190602001908083835b60208310611cf85780518252601f199092019160209182019101611cd9565b6001836020036101000a03801982511681845116808217855250505050505090500191505060006040518083038185875af1925050503d8060008114611d5a576040519150601f19603f3d011682016040523d82523d6000602084013e611d5f565b606091505b5091509150611d6f828286611d80565b979650505050505050565b3b151590565b60608315611d8f5750816111c1565b825115611d9f5782518084602001fd5b8160405162461bcd60e51b81526004018080602001828103825283818151815260200191508051906020019080838360005b83811015611de9578181015183820152602001611dd1565b50505050905090810190601f168015611e165780820380516001836020036101000a031916815260200191505b509250505060405180910390fdfe6164643a20696e76616c6964206465706f7369742066656520626173697320706f696e74735361666542455032303a204245503230206f7065726174696f6e20646964206e6f7420737563636565644f776e61626c653a206e6577206f776e657220697320746865207a65726f2061646472657373416464726573733a20696e73756666696369656e742062616c616e636520666f722063616c6c536166654d6174683a206d756c7469706c69636174696f6e206f766572666c6f777365743a20696e76616c6964206465706f7369742066656520626173697320706f696e74734f776e61626c653a2063616c6c6572206973206e6f7420746865206f776e6572676574506f6f6c4964466f724c70546f6b656e3a20646f206e6f7420657869737473616665446f67585472616e736665723a207472616e73666572206661696c65642ea26469706673582212200f7e404ef31a507686d08689cf43862f303eb539c746b73c3fa2408d8b161abd64736f6c634300060c0033",
  "devdoc": {
    "kind": "dev",
    "methods": {
      "owner()": {
        "details": "Returns the address of the current owner."
      },
      "renounceOwnership()": {
        "details": "Leaves the contract without owner. It will not be possible to call `onlyOwner` functions anymore. Can only be called by the current owner. NOTE: Renouncing ownership will leave the contract without an owner, thereby removing any functionality that is only available to the owner."
      },
      "transferOwnership(address)": {
        "details": "Transfers ownership of the contract to a new account (`newOwner`). Can only be called by the current owner."
      }
    },
    "version": 1
  },
  "userdoc": {
    "kind": "user",
    "methods": {},
    "version": 1
  },
  "storageLayout": {
    "storage": [
      {
        "astId": 10,
        "contract": "contracts/MasterChef.sol:MasterChef",
        "label": "_owner",
        "offset": 0,
        "slot": "0",
        "type": "t_address"
      },
      {
        "astId": 797,
        "contract": "contracts/MasterChef.sol:MasterChef",
        "label": "_status",
        "offset": 0,
        "slot": "1",
        "type": "t_uint256"
      },
      {
        "astId": 1498,
        "contract": "contracts/MasterChef.sol:MasterChef",
        "label": "dogX",
        "offset": 0,
        "slot": "2",
        "type": "t_contract(DogXToken)1462"
      },
      {
        "astId": 1500,
        "contract": "contracts/MasterChef.sol:MasterChef",
        "label": "devAddr",
        "offset": 0,
        "slot": "3",
        "type": "t_address"
      },
      {
        "astId": 1502,
        "contract": "contracts/MasterChef.sol:MasterChef",
        "label": "dogXPerBlock",
        "offset": 0,
        "slot": "4",
        "type": "t_uint256"
      },
      {
        "astId": 1504,
        "contract": "contracts/MasterChef.sol:MasterChef",
        "label": "feeAddress",
        "offset": 0,
        "slot": "5",
        "type": "t_address"
      },
      {
        "astId": 1507,
        "contract": "contracts/MasterChef.sol:MasterChef",
        "label": "poolInfo",
        "offset": 0,
        "slot": "6",
        "type": "t_array(t_struct(PoolInfo)1496_storage)dyn_storage"
      },
      {
        "astId": 1513,
        "contract": "contracts/MasterChef.sol:MasterChef",
        "label": "userInfo",
        "offset": 0,
        "slot": "7",
        "type": "t_mapping(t_uint256,t_mapping(t_address,t_struct(UserInfo)1485_storage))"
      },
      {
        "astId": 1516,
        "contract": "contracts/MasterChef.sol:MasterChef",
        "label": "totalAllocPoint",
        "offset": 0,
        "slot": "8",
        "type": "t_uint256"
      },
      {
        "astId": 1518,
        "contract": "contracts/MasterChef.sol:MasterChef",
        "label": "startBlock",
        "offset": 0,
        "slot": "9",
        "type": "t_uint256"
      },
      {
        "astId": 1525,
        "contract": "contracts/MasterChef.sol:MasterChef",
        "label": "poolExistence",
        "offset": 0,
        "slot": "10",
        "type": "t_mapping(t_contract(IBEP20)3593,t_bool)"
      },
      {
        "astId": 1529,
        "contract": "contracts/MasterChef.sol:MasterChef",
        "label": "poolIdForLpAddress",
        "offset": 0,
        "slot": "11",
        "type": "t_mapping(t_contract(IBEP20)3593,t_uint256)"
      }
    ],
    "types": {
      "t_address": {
        "encoding": "inplace",
        "label": "address",
        "numberOfBytes": "20"
      },
      "t_array(t_struct(PoolInfo)1496_storage)dyn_storage": {
        "base": "t_struct(PoolInfo)1496_storage",
        "encoding": "dynamic_array",
        "label": "struct MasterChef.PoolInfo[]",
        "numberOfBytes": "32"
      },
      "t_bool": {
        "encoding": "inplace",
        "label": "bool",
        "numberOfBytes": "1"
      },
      "t_contract(DogXToken)1462": {
        "encoding": "inplace",
        "label": "contract DogXToken",
        "numberOfBytes": "20"
      },
      "t_contract(IBEP20)3593": {
        "encoding": "inplace",
        "label": "contract IBEP20",
        "numberOfBytes": "20"
      },
      "t_mapping(t_address,t_struct(UserInfo)1485_storage)": {
        "encoding": "mapping",
        "key": "t_address",
        "label": "mapping(address => struct MasterChef.UserInfo)",
        "numberOfBytes": "32",
        "value": "t_struct(UserInfo)1485_storage"
      },
      "t_mapping(t_contract(IBEP20)3593,t_bool)": {
        "encoding": "mapping",
        "key": "t_contract(IBEP20)3593",
        "label": "mapping(contract IBEP20 => bool)",
        "numberOfBytes": "32",
        "value": "t_bool"
      },
      "t_mapping(t_contract(IBEP20)3593,t_uint256)": {
        "encoding": "mapping",
        "key": "t_contract(IBEP20)3593",
        "label": "mapping(contract IBEP20 => uint256)",
        "numberOfBytes": "32",
        "value": "t_uint256"
      },
      "t_mapping(t_uint256,t_mapping(t_address,t_struct(UserInfo)1485_storage))": {
        "encoding": "mapping",
        "key": "t_uint256",
        "label": "mapping(uint256 => mapping(address => struct MasterChef.UserInfo))",
        "numberOfBytes": "32",
        "value": "t_mapping(t_address,t_struct(UserInfo)1485_storage)"
      },
      "t_struct(PoolInfo)1496_storage": {
        "encoding": "inplace",
        "label": "struct MasterChef.PoolInfo",
        "members": [
          {
            "astId": 1487,
            "contract": "contracts/MasterChef.sol:MasterChef",
            "label": "lpToken",
            "offset": 0,
            "slot": "0",
            "type": "t_contract(IBEP20)3593"
          },
          {
            "astId": 1489,
            "contract": "contracts/MasterChef.sol:MasterChef",
            "label": "allocPoint",
            "offset": 0,
            "slot": "1",
            "type": "t_uint256"
          },
          {
            "astId": 1491,
            "contract": "contracts/MasterChef.sol:MasterChef",
            "label": "lastRewardBlock",
            "offset": 0,
            "slot": "2",
            "type": "t_uint256"
          },
          {
            "astId": 1493,
            "contract": "contracts/MasterChef.sol:MasterChef",
            "label": "accDogXPerShare",
            "offset": 0,
            "slot": "3",
            "type": "t_uint256"
          },
          {
            "astId": 1495,
            "contract": "contracts/MasterChef.sol:MasterChef",
            "label": "depositFeeBP",
            "offset": 0,
            "slot": "4",
            "type": "t_uint16"
          }
        ],
        "numberOfBytes": "160"
      },
      "t_struct(UserInfo)1485_storage": {
        "encoding": "inplace",
        "label": "struct MasterChef.UserInfo",
        "members": [
          {
            "astId": 1482,
            "contract": "contracts/MasterChef.sol:MasterChef",
            "label": "amount",
            "offset": 0,
            "slot": "0",
            "type": "t_uint256"
          },
          {
            "astId": 1484,
            "contract": "contracts/MasterChef.sol:MasterChef",
            "label": "rewardDebt",
            "offset": 0,
            "slot": "1",
            "type": "t_uint256"
          }
        ],
        "numberOfBytes": "64"
      },
      "t_uint16": {
        "encoding": "inplace",
        "label": "uint16",
        "numberOfBytes": "2"
      },
      "t_uint256": {
        "encoding": "inplace",
        "label": "uint256",
        "numberOfBytes": "32"
      }
    }
  }
}